{
  "_format": "hh-sol-artifact-1",
  "contractName": "CarMileage",
  "sourceName": "contracts/CarMileage.sol",
  "abi": [
    {
      "inputs": [],
      "stateMutability": "nonpayable",
      "type": "constructor"
    },
    {
      "anonymous": false,
      "inputs": [
        {
          "indexed": false,
          "internalType": "bytes32",
          "name": "carId",
          "type": "bytes32"
        },
        {
          "indexed": false,
          "internalType": "address",
          "name": "owner",
          "type": "address"
        }
      ],
      "name": "CarRegistered",
      "type": "event"
    },
    {
      "anonymous": false,
      "inputs": [
        {
          "indexed": false,
          "internalType": "bytes32",
          "name": "carId",
          "type": "bytes32"
        },
        {
          "indexed": false,
          "internalType": "uint256",
          "name": "newMileage",
          "type": "uint256"
        },
        {
          "indexed": false,
          "internalType": "string",
          "name": "serviceDetails",
          "type": "string"
        }
      ],
      "name": "MileageUpdated",
      "type": "event"
    },
    {
      "anonymous": false,
      "inputs": [
        {
          "indexed": false,
          "internalType": "bytes32",
          "name": "carId",
          "type": "bytes32"
        },
        {
          "indexed": false,
          "internalType": "address",
          "name": "newOwner",
          "type": "address"
        }
      ],
      "name": "OwnershipTransferred",
      "type": "event"
    },
    {
      "anonymous": false,
      "inputs": [
        {
          "indexed": false,
          "internalType": "address",
          "name": "serviceCenter",
          "type": "address"
        }
      ],
      "name": "ServiceCenterAdded",
      "type": "event"
    },
    {
      "inputs": [
        {
          "internalType": "bytes32",
          "name": "carId",
          "type": "bytes32"
        }
      ],
      "name": "registerCar",
      "outputs": [],
      "stateMutability": "nonpayable",
      "type": "function"
    }
  ],
  "bytecode": "0x608060405234801561001057600080fd5b5033600260006101000a81548173ffffffffffffffffffffffffffffffffffffffff021916908373ffffffffffffffffffffffffffffffffffffffff16021790555061033d806100616000396000f3fe608060405234801561001057600080fd5b506004361061002b5760003560e01c8063038c484714610030575b600080fd5b61004a600480360381019061004591906101d3565b61004c565b005b600073ffffffffffffffffffffffffffffffffffffffff1660008083815260200190815260200160002060000160009054906101000a900473ffffffffffffffffffffffffffffffffffffffff1673ffffffffffffffffffffffffffffffffffffffff16146100f0576040517f08c379a00000000000000000000000000000000000000000000000000000000081526004016100e790610283565b60405180910390fd5b60405180604001604052803373ffffffffffffffffffffffffffffffffffffffff168152602001600081525060008083815260200190815260200160002060008201518160000160006101000a81548173ffffffffffffffffffffffffffffffffffffffff021916908373ffffffffffffffffffffffffffffffffffffffff160217905550602082015181600101559050507f55d62dac41d1ec67d1fa8386d5953c6266f5959843f9a173fefed8d06c3154b881336040516101b392919061025a565b60405180910390a150565b6000813590506101cd816102f0565b92915050565b6000602082840312156101e557600080fd5b60006101f3848285016101be565b91505092915050565b610205816102b4565b82525050565b610214816102c6565b82525050565b60006102276016836102a3565b91507f43617220616c72656164792072656769737465726564000000000000000000006000830152602082019050919050565b600060408201905061026f600083018561020b565b61027c60208301846101fc565b9392505050565b6000602082019050818103600083015261029c8161021a565b9050919050565b600082825260208201905092915050565b60006102bf826102d0565b9050919050565b6000819050919050565b600073ffffffffffffffffffffffffffffffffffffffff82169050919050565b6102f9816102c6565b811461030457600080fd5b5056fea2646970667358221220d2fbda3996df8ee173dc7a394dd1115b761c46dfd3381c2b025500af11a51d7e64736f6c63430008000033",
  "linkReferences": {},
  "deployedLinkReferences": {}
}