{
  "_format": "hh-sol-artifact-1",
  "contractName": "CarMileage",
  "sourceName": "contracts/CarMileage.sol",
  "abi": [
    {
      "inputs": [],
      "stateMutability": "nonpayable",
      "type": "constructor"
    },
    {
      "anonymous": false,
      "inputs": [
        {
          "indexed": true,
          "internalType": "bytes32",
          "name": "carId",
          "type": "bytes32"
        },
        {
          "indexed": false,
          "internalType": "uint256",
          "name": "vin",
          "type": "uint256"
        },
        {
          "indexed": false,
          "internalType": "enum CarMileage.Make",
          "name": "make",
          "type": "uint8"
        },
        {
          "indexed": false,
          "internalType": "enum CarMileage.Model",
          "name": "model",
          "type": "uint8"
        },
        {
          "indexed": false,
          "internalType": "uint16",
          "name": "year",
          "type": "uint16"
        },
        {
          "indexed": false,
          "internalType": "string",
          "name": "initialOwner",
          "type": "string"
        }
      ],
      "name": "CarRegistered",
      "type": "event"
    },
    {
      "anonymous": false,
      "inputs": [
        {
          "indexed": true,
          "internalType": "bytes32",
          "name": "carId",
          "type": "bytes32"
        },
        {
          "indexed": false,
          "internalType": "uint256",
          "name": "mileage",
          "type": "uint256"
        }
      ],
      "name": "MileageUpdated",
      "type": "event"
    },
    {
      "anonymous": false,
      "inputs": [
        {
          "indexed": true,
          "internalType": "bytes32",
          "name": "carId",
          "type": "bytes32"
        },
        {
          "indexed": false,
          "internalType": "string",
          "name": "newOwner",
          "type": "string"
        }
      ],
      "name": "OwnershipTransferred",
      "type": "event"
    },
    {
      "inputs": [
        {
          "internalType": "bytes32",
          "name": "",
          "type": "bytes32"
        }
      ],
      "name": "carConstantData",
      "outputs": [
        {
          "internalType": "uint256",
          "name": "vin",
          "type": "uint256"
        },
        {
          "internalType": "enum CarMileage.Make",
          "name": "make",
          "type": "uint8"
        },
        {
          "internalType": "enum CarMileage.Model",
          "name": "model",
          "type": "uint8"
        },
        {
          "internalType": "uint16",
          "name": "year",
          "type": "uint16"
        }
      ],
      "stateMutability": "view",
      "type": "function"
    },
    {
      "inputs": [
        {
          "internalType": "bytes32",
          "name": "carId",
          "type": "bytes32"
        }
      ],
      "name": "carExists",
      "outputs": [
        {
          "internalType": "bool",
          "name": "",
          "type": "bool"
        }
      ],
      "stateMutability": "view",
      "type": "function"
    },
    {
      "inputs": [
        {
          "internalType": "bytes32",
          "name": "",
          "type": "bytes32"
        }
      ],
      "name": "carMutableData",
      "outputs": [
        {
          "internalType": "uint256",
          "name": "mileage",
          "type": "uint256"
        }
      ],
      "stateMutability": "view",
      "type": "function"
    },
    {
      "inputs": [],
      "name": "contractOwner",
      "outputs": [
        {
          "internalType": "address",
          "name": "",
          "type": "address"
        }
      ],
      "stateMutability": "view",
      "type": "function"
    },
    {
      "inputs": [
        {
          "internalType": "bytes32",
          "name": "carId",
          "type": "bytes32"
        }
      ],
      "name": "getCarDetails",
      "outputs": [
        {
          "components": [
            {
              "internalType": "uint256",
              "name": "vin",
              "type": "uint256"
            },
            {
              "internalType": "enum CarMileage.Make",
              "name": "make",
              "type": "uint8"
            },
            {
              "internalType": "enum CarMileage.Model",
              "name": "model",
              "type": "uint8"
            },
            {
              "internalType": "uint16",
              "name": "year",
              "type": "uint16"
            }
          ],
          "internalType": "struct CarMileage.CarConstantData",
          "name": "constantData",
          "type": "tuple"
        },
        {
          "internalType": "uint256",
          "name": "mileage",
          "type": "uint256"
        },
        {
          "components": [
            {
              "internalType": "uint256",
              "name": "mileage",
              "type": "uint256"
            },
            {
              "internalType": "uint256",
              "name": "timestamp",
              "type": "uint256"
            }
          ],
          "internalType": "struct CarMileage.ServiceRecord[]",
          "name": "serviceHistory",
          "type": "tuple[]"
        },
        {
          "components": [
            {
              "internalType": "string",
              "name": "ownerName",
              "type": "string"
            },
            {
              "internalType": "uint256",
              "name": "timestamp",
              "type": "uint256"
            }
          ],
          "internalType": "struct CarMileage.OwnershipRecord[]",
          "name": "ownershipHistory",
          "type": "tuple[]"
        }
      ],
      "stateMutability": "view",
      "type": "function"
    },
    {
      "inputs": [
        {
          "internalType": "bytes32",
          "name": "carId",
          "type": "bytes32"
        },
        {
          "internalType": "uint256",
          "name": "vin",
          "type": "uint256"
        },
        {
          "internalType": "enum CarMileage.Make",
          "name": "make",
          "type": "uint8"
        },
        {
          "internalType": "enum CarMileage.Model",
          "name": "model",
          "type": "uint8"
        },
        {
          "internalType": "uint16",
          "name": "year",
          "type": "uint16"
        },
        {
          "internalType": "string",
          "name": "initialOwner",
          "type": "string"
        }
      ],
      "name": "registerCar",
      "outputs": [],
      "stateMutability": "nonpayable",
      "type": "function"
    },
    {
      "inputs": [
        {
          "internalType": "bytes32",
          "name": "carId",
          "type": "bytes32"
        },
        {
          "internalType": "string",
          "name": "newOwner",
          "type": "string"
        }
      ],
      "name": "transferOwnership",
      "outputs": [],
      "stateMutability": "nonpayable",
      "type": "function"
    },
    {
      "inputs": [
        {
          "internalType": "bytes32",
          "name": "carId",
          "type": "bytes32"
        },
        {
          "internalType": "uint256",
          "name": "mileage",
          "type": "uint256"
        }
      ],
      "name": "updateMileage",
      "outputs": [],
      "stateMutability": "nonpayable",
      "type": "function"
    }
  ],
  "bytecode": "0x608060405234801561001057600080fd5b50336000806101000a81548173ffffffffffffffffffffffffffffffffffffffff021916908373ffffffffffffffffffffffffffffffffffffffff160217905550611788806100606000396000f3fe608060405234801561001057600080fd5b50600436106100885760003560e01c80639d8656801161005b5780639d86568014610128578063b302ef371461015b578063ce606ee01461018b578063e966157e146101a957610088565b80633230475a1461008d5780634e5451e4146100a95780636e661a1e146100c557806373f9bd05146100f5575b600080fd5b6100a760048036038101906100a29190610e1b565b6101c5565b005b6100c360048036038101906100be9190610d8b565b610511565b005b6100df60048036038101906100da9190610d62565b610624565b6040516100ec919061134f565b60405180910390f35b61010f600480360381019061010a9190610d62565b610642565b60405161011f949392919061136a565b60405180910390f35b610142600480360381019061013d9190610d62565b61069a565b60405161015294939291906112fc565b60405180910390f35b61017560048036038101906101709190610d62565b6109f0565b604051610182919061125f565b60405180910390f35b610193610a13565b6040516101a09190611244565b60405180910390f35b6101c360048036038101906101be9190610ddf565b610a37565b005b60008054906101000a900473ffffffffffffffffffffffffffffffffffffffff1673ffffffffffffffffffffffffffffffffffffffff163373ffffffffffffffffffffffffffffffffffffffff1614610253576040517f08c379a000000000000000000000000000000000000000000000000000000000815260040161024a906112dc565b60405180910390fd5b60006001600088815260200190815260200160002060000154146102ac576040517f08c379a00000000000000000000000000000000000000000000000000000000081526004016102a3906112bc565b60405180910390fd5b60405180608001604052808681526020018560048111156102f6577f4e487b7100000000000000000000000000000000000000000000000000000000600052602160045260246000fd5b8152602001846004811115610334577f4e487b7100000000000000000000000000000000000000000000000000000000600052602160045260246000fd5b81526020018361ffff16815250600160008881526020019081526020016000206000820151816000015560208201518160010160006101000a81548160ff021916908360048111156103af577f4e487b7100000000000000000000000000000000000000000000000000000000600052602160045260246000fd5b021790555060408201518160010160016101000a81548160ff02191690836004811115610405577f4e487b7100000000000000000000000000000000000000000000000000000000600052602160045260246000fd5b021790555060608201518160010160026101000a81548161ffff021916908361ffff1602179055509050506000600260008881526020019081526020016000206000018190555060026000878152602001908152602001600020600201604051806040016040528083815260200142815250908060018154018082558091505060019003906000526020600020906002020160009091909190915060008201518160000190805190602001906104bc929190610b52565b50602082015181600101555050857fe29425714ac64764313b6064b6bbfa0e5c7c139ce3810e27bc86bc07351946b286868686866040516105019594939291906113af565b60405180910390a2505050505050565b60006001600084815260200190815260200160002060000154141561056b576040517f08c379a00000000000000000000000000000000000000000000000000000000081526004016105629061129c565b60405180910390fd5b60026000838152602001908152602001600020600201604051806040016040528083815260200142815250908060018154018082558091505060019003906000526020600020906002020160009091909190915060008201518160000190805190602001906105db929190610b52565b50602082015181600101555050817f05bd9fe2ee66726463353de3d126251385f134096526cb94b375eed390b90eda82604051610618919061127a565b60405180910390a25050565b60026020528060005260406000206000915090508060000154905081565b60016020528060005260406000206000915090508060000154908060010160009054906101000a900460ff16908060010160019054906101000a900460ff16908060010160029054906101000a900461ffff16905084565b6106a2610bd8565b6000606080600060016000878152602001908152602001600020600001541415610701576040517f08c379a00000000000000000000000000000000000000000000000000000000081526004016106f89061129c565b60405180910390fd5b60016000868152602001908152602001600020604051806080016040529081600082015481526020016001820160009054906101000a900460ff166004811115610774577f4e487b7100000000000000000000000000000000000000000000000000000000600052602160045260246000fd5b60048111156107ac577f4e487b7100000000000000000000000000000000000000000000000000000000600052602160045260246000fd5b81526020016001820160019054906101000a900460ff1660048111156107fb577f4e487b7100000000000000000000000000000000000000000000000000000000600052602160045260246000fd5b6004811115610833577f4e487b7100000000000000000000000000000000000000000000000000000000600052602160045260246000fd5b81526020016001820160029054906101000a900461ffff1661ffff1661ffff168152505093506000600260008781526020019081526020016000209050848160000154826001018360020181805480602002602001604051908101604052809291908181526020016000905b828210156108e55783829060005260206000209060020201604051806040016040529081600082015481526020016001820154815250508152602001906001019061089f565b50505050915080805480602002602001604051908101604052809291908181526020016000905b828210156109da578382906000526020600020906002020160405180604001604052908160008201805461093f906115f5565b80601f016020809104026020016040519081016040528092919081815260200182805461096b906115f5565b80156109b85780601f1061098d576101008083540402835291602001916109b8565b820191906000526020600020905b81548152906001019060200180831161099b57829003601f168201915b505050505081526020016001820154815250508152602001906001019061090c565b5050505090509450945094509450509193509193565b600080600160008481526020019081526020016000206000015414159050919050565b60008054906101000a900473ffffffffffffffffffffffffffffffffffffffff1681565b600060016000848152602001908152602001600020600001541415610a91576040517f08c379a0000000000000000000000000000000000000000000000000000000008152600401610a889061129c565b60405180910390fd5b80600260008481526020019081526020016000206000018190555060026000838152602001908152602001600020600101604051806040016040528083815260200142815250908060018154018082558091505060019003906000526020600020906002020160009091909190915060008201518160000155602082015181600101555050817f11f6af111c6075b41f82bc26c6185f3546c767001801f27ce26d33d751f9814c82604051610b46919061134f565b60405180910390a25050565b828054610b5e906115f5565b90600052602060002090601f016020900481019282610b805760008555610bc7565b82601f10610b9957805160ff1916838001178555610bc7565b82800160010185558215610bc7579182015b82811115610bc6578251825591602001919060010190610bab565b5b509050610bd49190610c74565b5090565b60405180608001604052806000815260200160006004811115610c24577f4e487b7100000000000000000000000000000000000000000000000000000000600052602160045260246000fd5b815260200160006004811115610c63577f4e487b7100000000000000000000000000000000000000000000000000000000600052602160045260246000fd5b8152602001600061ffff1681525090565b5b80821115610c8d576000816000905550600101610c75565b5090565b6000610ca4610c9f8461143a565b611409565b905082815260208101848484011115610cbc57600080fd5b610cc78482856115b3565b509392505050565b600081359050610cde816116ed565b92915050565b600081359050610cf381611704565b92915050565b600081359050610d0881611714565b92915050565b600082601f830112610d1f57600080fd5b8135610d2f848260208601610c91565b91505092915050565b600081359050610d4781611724565b92915050565b600081359050610d5c8161173b565b92915050565b600060208284031215610d7457600080fd5b6000610d8284828501610ccf565b91505092915050565b60008060408385031215610d9e57600080fd5b6000610dac85828601610ccf565b925050602083013567ffffffffffffffff811115610dc957600080fd5b610dd585828601610d0e565b9150509250929050565b60008060408385031215610df257600080fd5b6000610e0085828601610ccf565b9250506020610e1185828601610d4d565b9150509250929050565b60008060008060008060c08789031215610e3457600080fd5b6000610e4289828a01610ccf565b9650506020610e5389828a01610d4d565b9550506040610e6489828a01610ce4565b9450506060610e7589828a01610cf9565b9350506080610e8689828a01610d38565b92505060a087013567ffffffffffffffff811115610ea357600080fd5b610eaf89828a01610d0e565b9150509295509295509295565b6000610ec8838361119c565b905092915050565b6000610edc83836111d9565b60408301905092915050565b610ef181611509565b82525050565b6000610f028261148a565b610f0c81856114c5565b935083602082028501610f1e8561146a565b8060005b85811015610f5a5784840389528151610f3b8582610ebc565b9450610f46836114ab565b925060208a01995050600181019050610f22565b50829750879550505050505092915050565b6000610f7782611495565b610f8181856114d6565b9350610f8c8361147a565b8060005b83811015610fbd578151610fa48882610ed0565b9750610faf836114b8565b925050600181019050610f90565b5085935050505092915050565b610fd38161151b565b82525050565b610fe28161158f565b82525050565b610ff18161158f565b82525050565b611000816115a1565b82525050565b61100f816115a1565b82525050565b6000611020826114a0565b61102a81856114e7565b935061103a8185602086016115c2565b611043816116b4565b840191505092915050565b6000611059826114a0565b61106381856114f8565b93506110738185602086016115c2565b61107c816116b4565b840191505092915050565b60006110946012836114f8565b91507f436172206e6f74207265676973746572656400000000000000000000000000006000830152602082019050919050565b60006110d46016836114f8565b91507f43617220616c72656164792072656769737465726564000000000000000000006000830152602082019050919050565b60006111146016836114f8565b91507f4e6f742074686520636f6e7472616374206f776e6572000000000000000000006000830152602082019050919050565b60808201600082015161115d6000850182611226565b5060208201516111706020850182610fd9565b5060408201516111836040850182610ff7565b5060608201516111966060850182611208565b50505050565b600060408301600083015184820360008601526111b98282611015565b91505060208301516111ce6020860182611226565b508091505092915050565b6040820160008201516111ef6000850182611226565b5060208201516112026020850182611226565b50505050565b61121181611557565b82525050565b61122081611557565b82525050565b61122f81611585565b82525050565b61123e81611585565b82525050565b60006020820190506112596000830184610ee8565b92915050565b60006020820190506112746000830184610fca565b92915050565b60006020820190508181036000830152611294818461104e565b905092915050565b600060208201905081810360008301526112b581611087565b9050919050565b600060208201905081810360008301526112d5816110c7565b9050919050565b600060208201905081810360008301526112f581611107565b9050919050565b600060e0820190506113116000830187611147565b61131e6080830186611235565b81810360a08301526113308185610f6c565b905081810360c08301526113448184610ef7565b905095945050505050565b60006020820190506113646000830184611235565b92915050565b600060808201905061137f6000830187611235565b61138c6020830186610fe8565b6113996040830185611006565b6113a66060830184611217565b95945050505050565b600060a0820190506113c46000830188611235565b6113d16020830187610fe8565b6113de6040830186611006565b6113eb6060830185611217565b81810360808301526113fd818461104e565b90509695505050505050565b6000604051905081810181811067ffffffffffffffff821117156114305761142f611685565b5b8060405250919050565b600067ffffffffffffffff82111561145557611454611685565b5b601f19601f8301169050602081019050919050565b6000819050602082019050919050565b6000819050602082019050919050565b600081519050919050565b600081519050919050565b600081519050919050565b6000602082019050919050565b6000602082019050919050565b600082825260208201905092915050565b600082825260208201905092915050565b600082825260208201905092915050565b600082825260208201905092915050565b600061151482611565565b9050919050565b60008115159050919050565b6000819050919050565b600081905061153f826116c5565b919050565b6000819050611552826116d9565b919050565b600061ffff82169050919050565b600073ffffffffffffffffffffffffffffffffffffffff82169050919050565b6000819050919050565b600061159a82611531565b9050919050565b60006115ac82611544565b9050919050565b82818337600083830152505050565b60005b838110156115e05780820151818401526020810190506115c5565b838111156115ef576000848401525b50505050565b6000600282049050600182168061160d57607f821691505b6020821081141561162157611620611656565b5b50919050565b7f4e487b7100000000000000000000000000000000000000000000000000000000600052602160045260246000fd5b7f4e487b7100000000000000000000000000000000000000000000000000000000600052602260045260246000fd5b7f4e487b7100000000000000000000000000000000000000000000000000000000600052604160045260246000fd5b6000601f19601f8301169050919050565b600581106116d6576116d5611627565b5b50565b600581106116ea576116e9611627565b5b50565b6116f681611527565b811461170157600080fd5b50565b6005811061171157600080fd5b50565b6005811061172157600080fd5b50565b61172d81611557565b811461173857600080fd5b50565b61174481611585565b811461174f57600080fd5b5056fea2646970667358221220f8705935b3752c5c7980f7d501ccd180a5ded0007f2645b298d41625a844628764736f6c63430008000033",
  "linkReferences": {},
  "deployedLinkReferences": {}
}