{
  "_format": "hh-sol-artifact-1",
  "contractName": "CarMileage",
  "sourceName": "contracts/CarMileage.sol",
  "abi": [
    {
      "inputs": [],
      "stateMutability": "nonpayable",
      "type": "constructor"
    },
    {
      "anonymous": false,
      "inputs": [
        {
          "indexed": true,
          "internalType": "bytes32",
          "name": "carId",
          "type": "bytes32"
        },
        {
          "indexed": false,
          "internalType": "string",
          "name": "vin",
          "type": "string"
        },
        {
          "indexed": false,
          "internalType": "string",
          "name": "initialOwner",
          "type": "string"
        }
      ],
      "name": "CarRegistered",
      "type": "event"
    },
    {
      "anonymous": false,
      "inputs": [
        {
          "indexed": true,
          "internalType": "bytes32",
          "name": "carId",
          "type": "bytes32"
        },
        {
          "indexed": false,
          "internalType": "uint256",
          "name": "mileage",
          "type": "uint256"
        }
      ],
      "name": "MileageUpdated",
      "type": "event"
    },
    {
      "anonymous": false,
      "inputs": [
        {
          "indexed": true,
          "internalType": "bytes32",
          "name": "carId",
          "type": "bytes32"
        },
        {
          "indexed": false,
          "internalType": "string",
          "name": "previousOwner",
          "type": "string"
        },
        {
          "indexed": false,
          "internalType": "string",
          "name": "newOwner",
          "type": "string"
        }
      ],
      "name": "OwnershipTransferred",
      "type": "event"
    },
    {
      "inputs": [
        {
          "internalType": "bytes32",
          "name": "",
          "type": "bytes32"
        }
      ],
      "name": "carConstantData",
      "outputs": [
        {
          "internalType": "string",
          "name": "vin",
          "type": "string"
        },
        {
          "internalType": "string",
          "name": "make",
          "type": "string"
        },
        {
          "internalType": "string",
          "name": "model",
          "type": "string"
        },
        {
          "internalType": "uint16",
          "name": "year",
          "type": "uint16"
        }
      ],
      "stateMutability": "view",
      "type": "function"
    },
    {
      "inputs": [
        {
          "internalType": "bytes32",
          "name": "carId",
          "type": "bytes32"
        }
      ],
      "name": "carExists",
      "outputs": [
        {
          "internalType": "bool",
          "name": "",
          "type": "bool"
        }
      ],
      "stateMutability": "view",
      "type": "function"
    },
    {
      "inputs": [
        {
          "internalType": "bytes32",
          "name": "",
          "type": "bytes32"
        }
      ],
      "name": "carMutableData",
      "outputs": [
        {
          "internalType": "string",
          "name": "currentOwnerName",
          "type": "string"
        },
        {
          "internalType": "uint256",
          "name": "mileage",
          "type": "uint256"
        }
      ],
      "stateMutability": "view",
      "type": "function"
    },
    {
      "inputs": [],
      "name": "contractOwner",
      "outputs": [
        {
          "internalType": "address",
          "name": "",
          "type": "address"
        }
      ],
      "stateMutability": "view",
      "type": "function"
    },
    {
      "inputs": [
        {
          "internalType": "string",
          "name": "vin",
          "type": "string"
        }
      ],
      "name": "findCarIdByVin",
      "outputs": [
        {
          "internalType": "bytes32",
          "name": "",
          "type": "bytes32"
        }
      ],
      "stateMutability": "view",
      "type": "function"
    },
    {
      "inputs": [
        {
          "internalType": "bytes32",
          "name": "carId",
          "type": "bytes32"
        }
      ],
      "name": "getCarDetails",
      "outputs": [
        {
          "components": [
            {
              "internalType": "string",
              "name": "vin",
              "type": "string"
            },
            {
              "internalType": "string",
              "name": "make",
              "type": "string"
            },
            {
              "internalType": "string",
              "name": "model",
              "type": "string"
            },
            {
              "internalType": "uint16",
              "name": "year",
              "type": "uint16"
            }
          ],
          "internalType": "struct CarMileage.CarConstantData",
          "name": "constantData",
          "type": "tuple"
        },
        {
          "internalType": "string",
          "name": "currentOwner",
          "type": "string"
        },
        {
          "internalType": "uint256",
          "name": "mileage",
          "type": "uint256"
        },
        {
          "components": [
            {
              "internalType": "uint256",
              "name": "mileage",
              "type": "uint256"
            },
            {
              "internalType": "string",
              "name": "serviceDetails",
              "type": "string"
            },
            {
              "internalType": "uint256",
              "name": "timestamp",
              "type": "uint256"
            }
          ],
          "internalType": "struct CarMileage.ServiceRecord[]",
          "name": "serviceHistory",
          "type": "tuple[]"
        },
        {
          "components": [
            {
              "internalType": "string",
              "name": "ownerName",
              "type": "string"
            },
            {
              "internalType": "uint256",
              "name": "timestamp",
              "type": "uint256"
            }
          ],
          "internalType": "struct CarMileage.OwnershipRecord[]",
          "name": "ownershipHistory",
          "type": "tuple[]"
        }
      ],
      "stateMutability": "view",
      "type": "function"
    },
    {
      "inputs": [
        {
          "internalType": "bytes32",
          "name": "carId",
          "type": "bytes32"
        },
        {
          "internalType": "string",
          "name": "vin",
          "type": "string"
        },
        {
          "internalType": "string",
          "name": "make",
          "type": "string"
        },
        {
          "internalType": "string",
          "name": "model",
          "type": "string"
        },
        {
          "internalType": "uint16",
          "name": "year",
          "type": "uint16"
        },
        {
          "internalType": "string",
          "name": "initialOwner",
          "type": "string"
        }
      ],
      "name": "registerCar",
      "outputs": [],
      "stateMutability": "nonpayable",
      "type": "function"
    },
    {
      "inputs": [
        {
          "internalType": "uint256",
          "name": "",
          "type": "uint256"
        }
      ],
      "name": "registeredCars",
      "outputs": [
        {
          "internalType": "bytes32",
          "name": "",
          "type": "bytes32"
        }
      ],
      "stateMutability": "view",
      "type": "function"
    },
    {
      "inputs": [
        {
          "internalType": "bytes32",
          "name": "carId",
          "type": "bytes32"
        },
        {
          "internalType": "string",
          "name": "newOwner",
          "type": "string"
        }
      ],
      "name": "transferOwnership",
      "outputs": [],
      "stateMutability": "nonpayable",
      "type": "function"
    },
    {
      "inputs": [
        {
          "internalType": "bytes32",
          "name": "carId",
          "type": "bytes32"
        },
        {
          "internalType": "uint256",
          "name": "mileage",
          "type": "uint256"
        },
        {
          "internalType": "string",
          "name": "serviceDetails",
          "type": "string"
        }
      ],
      "name": "updateMileage",
      "outputs": [],
      "stateMutability": "nonpayable",
      "type": "function"
    }
  ],
  "bytecode": "0x608060405234801561001057600080fd5b50336000806101000a81548173ffffffffffffffffffffffffffffffffffffffff021916908373ffffffffffffffffffffffffffffffffffffffff160217905550611f3f806100606000396000f3fe608060405234801561001057600080fd5b506004361061009e5760003560e01c80636e661a1e116100665780636e661a1e1461015757806373f9bd05146101885780639d865680146101bb578063b302ef37146101ef578063ce606ee01461021f5761009e565b80630d5f7702146100a35780631fc6a8cf146100bf5780633095dfc6146100ef5780633e41d7a31461011f5780634e5451e41461013b575b600080fd5b6100bd60048036038101906100b8919061147b565b61023d565b005b6100d960048036038101906100d49190611523565b610387565b6040516100e69190611a03565b60405180910390f35b610109600480360381019061010491906114e2565b6103ab565b6040516101169190611a03565b60405180910390f35b61013960048036038101906101349190611392565b6104de565b005b6101556004803603810190610150919061133e565b6107b5565b005b610171600480360381019061016c9190611315565b6109a4565b60405161017f929190611aaf565b60405180910390f35b6101a2600480360381019061019d9190611315565b610a50565b6040516101b29493929190611a55565b60405180910390f35b6101d560048036038101906101d09190611315565b610c26565b6040516101e6959493929190611b5f565b60405180910390f35b61020960048036038101906102049190611315565b61114d565b60405161021691906119e8565b60405180910390f35b61022761117b565b60405161023491906119cd565b60405180910390f35b600060016000858152602001908152602001600020600001805461026090611dab565b9050116102a2576040517f08c379a000000000000000000000000000000000000000000000000000000000815260040161029990611adf565b60405180910390fd5b81600260008581526020019081526020016000206001018190555060026000848152602001908152602001600020600201604051806060016040528084815260200183815260200142815250908060018154018082558091505060019003906000526020600020906003020160009091909190915060008201518160000155602082015181600101908051906020019061033d92919061119f565b50604082015181600201555050827f11f6af111c6075b41f82bc26c6185f3546c767001801f27ce26d33d751f9814c8360405161037a9190611bce565b60405180910390a2505050565b6003818154811061039757600080fd5b906000526020600020016000915090505481565b600080600090505b60038054905081101561049d5782805190602001206001600060038481548110610406577f4e487b7100000000000000000000000000000000000000000000000000000000600052603260045260246000fd5b9060005260206000200154815260200190815260200160002060000160405161042f91906119b6565b6040518091039020141561048a5760038181548110610477577f4e487b7100000000000000000000000000000000000000000000000000000000600052603260045260246000fd5b90600052602060002001549150506104d9565b808061049590611ddd565b9150506103b3565b506040517f08c379a00000000000000000000000000000000000000000000000000000000081526004016104d090611b3f565b60405180910390fd5b919050565b60008054906101000a900473ffffffffffffffffffffffffffffffffffffffff1673ffffffffffffffffffffffffffffffffffffffff163373ffffffffffffffffffffffffffffffffffffffff161461056c576040517f08c379a000000000000000000000000000000000000000000000000000000000815260040161056390611b1f565b60405180910390fd5b600060016000888152602001908152602001600020600001805461058f90611dab565b9050146105d1576040517f08c379a00000000000000000000000000000000000000000000000000000000081526004016105c890611aff565b60405180910390fd5b60405180608001604052808681526020018581526020018481526020018361ffff1681525060016000888152602001908152602001600020600082015181600001908051906020019061062592919061119f565b50602082015181600101908051906020019061064292919061119f565b50604082015181600201908051906020019061065f92919061119f565b5060608201518160030160006101000a81548161ffff021916908361ffff160217905550905050806002600088815260200190815260200160002060000190805190602001906106b092919061119f565b5060006002600088815260200190815260200160002060010181905550600260008781526020019081526020016000206003016040518060400160405280838152602001428152509080600181540180825580915050600190039060005260206000209060020201600090919091909150600082015181600001908051906020019061073d92919061119f565b506020820151816001015550506003869080600181540180825580915050600190039060005260206000200160009091909190915055857fd446b3afbd3cad289282a1d6175e22ceea3d235152e314254fbf387f3c2d912386836040516107a5929190611a1e565b60405180910390a2505050505050565b60006001600084815260200190815260200160002060000180546107d890611dab565b90501161081a576040517f08c379a000000000000000000000000000000000000000000000000000000000815260040161081190611adf565b60405180910390fd5b600060026000848152602001908152602001600020600001805461083d90611dab565b80601f016020809104026020016040519081016040528092919081815260200182805461086990611dab565b80156108b65780601f1061088b576101008083540402835291602001916108b6565b820191906000526020600020905b81548152906001019060200180831161089957829003601f168201915b50505050509050816002600085815260200190815260200160002060000190805190602001906108e792919061119f565b50600260008481526020019081526020016000206003016040518060400160405280848152602001428152509080600181540180825580915050600190039060005260206000209060020201600090919091909150600082015181600001908051906020019061095892919061119f565b50602082015181600101555050827f25e9515656530c3e05d65a19e2df1cceead753ccbab39e34d0986803185e990c8284604051610997929190611a1e565b60405180910390a2505050565b60026020528060005260406000206000915090508060000180546109c790611dab565b80601f01602080910402602001604051908101604052809291908181526020018280546109f390611dab565b8015610a405780601f10610a1557610100808354040283529160200191610a40565b820191906000526020600020905b815481529060010190602001808311610a2357829003601f168201915b5050505050908060010154905082565b6001602052806000526040600020600091509050806000018054610a7390611dab565b80601f0160208091040260200160405190810160405280929190818152602001828054610a9f90611dab565b8015610aec5780601f10610ac157610100808354040283529160200191610aec565b820191906000526020600020905b815481529060010190602001808311610acf57829003601f168201915b505050505090806001018054610b0190611dab565b80601f0160208091040260200160405190810160405280929190818152602001828054610b2d90611dab565b8015610b7a5780601f10610b4f57610100808354040283529160200191610b7a565b820191906000526020600020905b815481529060010190602001808311610b5d57829003601f168201915b505050505090806002018054610b8f90611dab565b80601f0160208091040260200160405190810160405280929190818152602001828054610bbb90611dab565b8015610c085780601f10610bdd57610100808354040283529160200191610c08565b820191906000526020600020905b815481529060010190602001808311610beb57829003601f168201915b5050505050908060030160009054906101000a900461ffff16905084565b610c2e611225565b606060006060806000600160008881526020019081526020016000206000018054610c5890611dab565b905011610c9a576040517f08c379a0000000000000000000000000000000000000000000000000000000008152600401610c9190611adf565b60405180910390fd5b60016000878152602001908152602001600020604051806080016040529081600082018054610cc890611dab565b80601f0160208091040260200160405190810160405280929190818152602001828054610cf490611dab565b8015610d415780601f10610d1657610100808354040283529160200191610d41565b820191906000526020600020905b815481529060010190602001808311610d2457829003601f168201915b50505050508152602001600182018054610d5a90611dab565b80601f0160208091040260200160405190810160405280929190818152602001828054610d8690611dab565b8015610dd35780601f10610da857610100808354040283529160200191610dd3565b820191906000526020600020905b815481529060010190602001808311610db657829003601f168201915b50505050508152602001600282018054610dec90611dab565b80601f0160208091040260200160405190810160405280929190818152602001828054610e1890611dab565b8015610e655780601f10610e3a57610100808354040283529160200191610e65565b820191906000526020600020905b815481529060010190602001808311610e4857829003601f168201915b505050505081526020016003820160009054906101000a900461ffff1661ffff1661ffff168152505094506000600260008881526020019081526020016000209050858160000182600101548360020184600301838054610ec590611dab565b80601f0160208091040260200160405190810160405280929190818152602001828054610ef190611dab565b8015610f3e5780601f10610f1357610100808354040283529160200191610f3e565b820191906000526020600020905b815481529060010190602001808311610f2157829003601f168201915b5050505050935081805480602002602001604051908101604052809291908181526020016000905b8282101561103e578382906000526020600020906003020160405180606001604052908160008201548152602001600182018054610fa390611dab565b80601f0160208091040260200160405190810160405280929190818152602001828054610fcf90611dab565b801561101c5780601f10610ff15761010080835404028352916020019161101c565b820191906000526020600020905b815481529060010190602001808311610fff57829003601f168201915b5050505050815260200160028201548152505081526020019060010190610f66565b50505050915080805480602002602001604051908101604052809291908181526020016000905b82821015611133578382906000526020600020906002020160405180604001604052908160008201805461109890611dab565b80601f01602080910402602001604051908101604052809291908181526020018280546110c490611dab565b80156111115780601f106110e657610100808354040283529160200191611111565b820191906000526020600020905b8154815290600101906020018083116110f457829003601f168201915b5050505050815260200160018201548152505081526020019060010190611065565b505050509050955095509550955095505091939590929450565b60008060016000848152602001908152602001600020600001805461117190611dab565b9050119050919050565b60008054906101000a900473ffffffffffffffffffffffffffffffffffffffff1681565b8280546111ab90611dab565b90600052602060002090601f0160209004810192826111cd5760008555611214565b82601f106111e657805160ff1916838001178555611214565b82800160010185558215611214579182015b828111156112135782518255916020019190600101906111f8565b5b5090506112219190611251565b5090565b6040518060800160405280606081526020016060815260200160608152602001600061ffff1681525090565b5b8082111561126a576000816000905550600101611252565b5090565b600061128161127c84611c1a565b611be9565b90508281526020810184848401111561129957600080fd5b6112a4848285611d69565b509392505050565b6000813590506112bb81611ec4565b92915050565b600082601f8301126112d257600080fd5b81356112e284826020860161126e565b91505092915050565b6000813590506112fa81611edb565b92915050565b60008135905061130f81611ef2565b92915050565b60006020828403121561132757600080fd5b6000611335848285016112ac565b91505092915050565b6000806040838503121561135157600080fd5b600061135f858286016112ac565b925050602083013567ffffffffffffffff81111561137c57600080fd5b611388858286016112c1565b9150509250929050565b60008060008060008060c087890312156113ab57600080fd5b60006113b989828a016112ac565b965050602087013567ffffffffffffffff8111156113d657600080fd5b6113e289828a016112c1565b955050604087013567ffffffffffffffff8111156113ff57600080fd5b61140b89828a016112c1565b945050606087013567ffffffffffffffff81111561142857600080fd5b61143489828a016112c1565b935050608061144589828a016112eb565b92505060a087013567ffffffffffffffff81111561146257600080fd5b61146e89828a016112c1565b9150509295509295509295565b60008060006060848603121561149057600080fd5b600061149e868287016112ac565b93505060206114af86828701611300565b925050604084013567ffffffffffffffff8111156114cc57600080fd5b6114d8868287016112c1565b9150509250925092565b6000602082840312156114f457600080fd5b600082013567ffffffffffffffff81111561150e57600080fd5b61151a848285016112c1565b91505092915050565b60006020828403121561153557600080fd5b600061154384828501611300565b91505092915050565b600061155883836118ed565b905092915050565b600061156c838361192a565b905092915050565b61157d81611d09565b82525050565b600061158e82611c7f565b6115988185611cba565b9350836020820285016115aa85611c4a565b8060005b858110156115e657848403895281516115c7858261154c565b94506115d283611ca0565b925060208a019950506001810190506115ae565b50829750879550505050505092915050565b600061160382611c8a565b61160d8185611ccb565b93508360208202850161161f85611c5a565b8060005b8581101561165b578484038952815161163c8582611560565b945061164783611cad565b925060208a01995050600181019050611623565b50829750879550505050505092915050565b61167681611d1b565b82525050565b61168581611d27565b82525050565b6000815461169881611dab565b6116a28186611cdc565b945060018216600081146116bd57600181146116ce57611701565b60ff19831686528186019350611701565b6116d785611c6a565b60005b838110156116f9578154818901526001820191506020810190506116da565b838801955050505b50505092915050565b600061171582611c95565b61171f8185611ce7565b935061172f818560208601611d78565b61173881611eb3565b840191505092915050565b600061174e82611c95565b6117588185611cf8565b9350611768818560208601611d78565b61177181611eb3565b840191505092915050565b6000611789601283611cf8565b91507f436172206e6f74207265676973746572656400000000000000000000000000006000830152602082019050919050565b60006117c9601683611cf8565b91507f43617220616c72656164792072656769737465726564000000000000000000006000830152602082019050919050565b6000611809601683611cf8565b91507f4e6f742074686520636f6e7472616374206f776e6572000000000000000000006000830152602082019050919050565b6000611849601c83611cf8565b91507f436172207769746820676976656e2056494e206e6f7420666f756e64000000006000830152602082019050919050565b60006080830160008301518482036000860152611899828261170a565b915050602083015184820360208601526118b3828261170a565b915050604083015184820360408601526118cd828261170a565b91505060608301516118e2606086018261197a565b508091505092915050565b6000604083016000830151848203600086015261190a828261170a565b915050602083015161191f6020860182611998565b508091505092915050565b60006060830160008301516119426000860182611998565b506020830151848203602086015261195a828261170a565b915050604083015161196f6040860182611998565b508091505092915050565b61198381611d31565b82525050565b61199281611d31565b82525050565b6119a181611d5f565b82525050565b6119b081611d5f565b82525050565b60006119c2828461168b565b915081905092915050565b60006020820190506119e26000830184611574565b92915050565b60006020820190506119fd600083018461166d565b92915050565b6000602082019050611a18600083018461167c565b92915050565b60006040820190508181036000830152611a388185611743565b90508181036020830152611a4c8184611743565b90509392505050565b60006080820190508181036000830152611a6f8187611743565b90508181036020830152611a838186611743565b90508181036040830152611a978185611743565b9050611aa66060830184611989565b95945050505050565b60006040820190508181036000830152611ac98185611743565b9050611ad860208301846119a7565b9392505050565b60006020820190508181036000830152611af88161177c565b9050919050565b60006020820190508181036000830152611b18816117bc565b9050919050565b60006020820190508181036000830152611b38816117fc565b9050919050565b60006020820190508181036000830152611b588161183c565b9050919050565b600060a0820190508181036000830152611b79818861187c565b90508181036020830152611b8d8187611743565b9050611b9c60408301866119a7565b8181036060830152611bae81856115f8565b90508181036080830152611bc28184611583565b90509695505050505050565b6000602082019050611be360008301846119a7565b92915050565b6000604051905081810181811067ffffffffffffffff82111715611c1057611c0f611e84565b5b8060405250919050565b600067ffffffffffffffff821115611c3557611c34611e84565b5b601f19601f8301169050602081019050919050565b6000819050602082019050919050565b6000819050602082019050919050565b60008190508160005260206000209050919050565b600081519050919050565b600081519050919050565b600081519050919050565b6000602082019050919050565b6000602082019050919050565b600082825260208201905092915050565b600082825260208201905092915050565b600081905092915050565b600082825260208201905092915050565b600082825260208201905092915050565b6000611d1482611d3f565b9050919050565b60008115159050919050565b6000819050919050565b600061ffff82169050919050565b600073ffffffffffffffffffffffffffffffffffffffff82169050919050565b6000819050919050565b82818337600083830152505050565b60005b83811015611d96578082015181840152602081019050611d7b565b83811115611da5576000848401525b50505050565b60006002820490506001821680611dc357607f821691505b60208210811415611dd757611dd6611e55565b5b50919050565b6000611de882611d5f565b91507fffffffffffffffffffffffffffffffffffffffffffffffffffffffffffffffff821415611e1b57611e1a611e26565b5b600182019050919050565b7f4e487b7100000000000000000000000000000000000000000000000000000000600052601160045260246000fd5b7f4e487b7100000000000000000000000000000000000000000000000000000000600052602260045260246000fd5b7f4e487b7100000000000000000000000000000000000000000000000000000000600052604160045260246000fd5b6000601f19601f8301169050919050565b611ecd81611d27565b8114611ed857600080fd5b50565b611ee481611d31565b8114611eef57600080fd5b50565b611efb81611d5f565b8114611f0657600080fd5b5056fea2646970667358221220ac937bc712b5ae1d22de1b51ddafaabd446582c5de4b3b3bb2aef44b9b6b91b964736f6c63430008000033",
  "linkReferences": {},
  "deployedLinkReferences": {}
}