{
  "_format": "hh-sol-artifact-1",
  "contractName": "CarMileage",
  "sourceName": "contracts/CarMileage.sol",
  "abi": [
    {
      "inputs": [],
      "stateMutability": "nonpayable",
      "type": "constructor"
    },
    {
      "anonymous": false,
      "inputs": [
        {
          "indexed": true,
          "internalType": "bytes32",
          "name": "carId",
          "type": "bytes32"
        },
        {
          "indexed": false,
          "internalType": "uint256",
          "name": "timestamp",
          "type": "uint256"
        },
        {
          "indexed": false,
          "internalType": "string",
          "name": "description",
          "type": "string"
        },
        {
          "indexed": false,
          "internalType": "string[]",
          "name": "partsChanged",
          "type": "string[]"
        }
      ],
      "name": "AccidentReported",
      "type": "event"
    },
    {
      "anonymous": false,
      "inputs": [
        {
          "indexed": true,
          "internalType": "bytes32",
          "name": "carId",
          "type": "bytes32"
        },
        {
          "indexed": false,
          "internalType": "uint256",
          "name": "vin",
          "type": "uint256"
        },
        {
          "indexed": false,
          "internalType": "string",
          "name": "make",
          "type": "string"
        },
        {
          "indexed": false,
          "internalType": "string",
          "name": "model",
          "type": "string"
        },
        {
          "indexed": false,
          "internalType": "uint16",
          "name": "year",
          "type": "uint16"
        },
        {
          "indexed": false,
          "internalType": "string",
          "name": "initialOwner",
          "type": "string"
        }
      ],
      "name": "CarRegistered",
      "type": "event"
    },
    {
      "anonymous": false,
      "inputs": [
        {
          "indexed": true,
          "internalType": "bytes32",
          "name": "carId",
          "type": "bytes32"
        },
        {
          "indexed": false,
          "internalType": "uint256",
          "name": "mileage",
          "type": "uint256"
        }
      ],
      "name": "MileageUpdated",
      "type": "event"
    },
    {
      "anonymous": false,
      "inputs": [
        {
          "indexed": true,
          "internalType": "bytes32",
          "name": "carId",
          "type": "bytes32"
        },
        {
          "indexed": false,
          "internalType": "string",
          "name": "newOwner",
          "type": "string"
        }
      ],
      "name": "OwnershipTransferred",
      "type": "event"
    },
    {
      "inputs": [
        {
          "internalType": "bytes32",
          "name": "",
          "type": "bytes32"
        }
      ],
      "name": "carConstantData",
      "outputs": [
        {
          "internalType": "uint256",
          "name": "vin",
          "type": "uint256"
        },
        {
          "internalType": "string",
          "name": "make",
          "type": "string"
        },
        {
          "internalType": "string",
          "name": "model",
          "type": "string"
        },
        {
          "internalType": "uint16",
          "name": "year",
          "type": "uint16"
        }
      ],
      "stateMutability": "view",
      "type": "function"
    },
    {
      "inputs": [
        {
          "internalType": "bytes32",
          "name": "carId",
          "type": "bytes32"
        }
      ],
      "name": "carExists",
      "outputs": [
        {
          "internalType": "bool",
          "name": "",
          "type": "bool"
        }
      ],
      "stateMutability": "view",
      "type": "function"
    },
    {
      "inputs": [],
      "name": "contractOwner",
      "outputs": [
        {
          "internalType": "address",
          "name": "",
          "type": "address"
        }
      ],
      "stateMutability": "view",
      "type": "function"
    },
    {
      "inputs": [
        {
          "internalType": "bytes32",
          "name": "carId",
          "type": "bytes32"
        }
      ],
      "name": "getAccidentHistory",
      "outputs": [
        {
          "components": [
            {
              "internalType": "uint256",
              "name": "timestamp",
              "type": "uint256"
            },
            {
              "internalType": "string",
              "name": "description",
              "type": "string"
            },
            {
              "internalType": "string[]",
              "name": "partsChanged",
              "type": "string[]"
            }
          ],
          "internalType": "struct CarMileage.AccidentReport[]",
          "name": "",
          "type": "tuple[]"
        }
      ],
      "stateMutability": "view",
      "type": "function"
    },
    {
      "inputs": [
        {
          "internalType": "bytes32",
          "name": "carId",
          "type": "bytes32"
        }
      ],
      "name": "getCarDetails",
      "outputs": [
        {
          "components": [
            {
              "internalType": "uint256",
              "name": "vin",
              "type": "uint256"
            },
            {
              "internalType": "string",
              "name": "make",
              "type": "string"
            },
            {
              "internalType": "string",
              "name": "model",
              "type": "string"
            },
            {
              "internalType": "uint16",
              "name": "year",
              "type": "uint16"
            }
          ],
          "internalType": "struct CarMileage.CarConstantData",
          "name": "constantData",
          "type": "tuple"
        },
        {
          "internalType": "uint256",
          "name": "lastServiceMileage",
          "type": "uint256"
        },
        {
          "components": [
            {
              "internalType": "uint256",
              "name": "mileage",
              "type": "uint256"
            },
            {
              "internalType": "uint256",
              "name": "timestamp",
              "type": "uint256"
            },
            {
              "internalType": "string",
              "name": "description",
              "type": "string"
            }
          ],
          "internalType": "struct CarMileage.ServiceRecord[]",
          "name": "serviceHistory",
          "type": "tuple[]"
        },
        {
          "components": [
            {
              "internalType": "string",
              "name": "ownerName",
              "type": "string"
            },
            {
              "internalType": "uint256",
              "name": "timestamp",
              "type": "uint256"
            }
          ],
          "internalType": "struct CarMileage.OwnershipRecord[]",
          "name": "ownershipHistory",
          "type": "tuple[]"
        },
        {
          "components": [
            {
              "internalType": "uint256",
              "name": "timestamp",
              "type": "uint256"
            },
            {
              "internalType": "string",
              "name": "description",
              "type": "string"
            },
            {
              "internalType": "string[]",
              "name": "partsChanged",
              "type": "string[]"
            }
          ],
          "internalType": "struct CarMileage.AccidentReport[]",
          "name": "accidentHistory",
          "type": "tuple[]"
        }
      ],
      "stateMutability": "view",
      "type": "function"
    },
    {
      "inputs": [
        {
          "internalType": "bytes32",
          "name": "carId",
          "type": "bytes32"
        }
      ],
      "name": "getOwnershipHistory",
      "outputs": [
        {
          "components": [
            {
              "internalType": "string",
              "name": "ownerName",
              "type": "string"
            },
            {
              "internalType": "uint256",
              "name": "timestamp",
              "type": "uint256"
            }
          ],
          "internalType": "struct CarMileage.OwnershipRecord[]",
          "name": "",
          "type": "tuple[]"
        }
      ],
      "stateMutability": "view",
      "type": "function"
    },
    {
      "inputs": [
        {
          "internalType": "bytes32",
          "name": "carId",
          "type": "bytes32"
        }
      ],
      "name": "getServiceHistory",
      "outputs": [
        {
          "components": [
            {
              "internalType": "uint256",
              "name": "mileage",
              "type": "uint256"
            },
            {
              "internalType": "uint256",
              "name": "timestamp",
              "type": "uint256"
            },
            {
              "internalType": "string",
              "name": "description",
              "type": "string"
            }
          ],
          "internalType": "struct CarMileage.ServiceRecord[]",
          "name": "",
          "type": "tuple[]"
        }
      ],
      "stateMutability": "view",
      "type": "function"
    },
    {
      "inputs": [
        {
          "internalType": "bytes32",
          "name": "carId",
          "type": "bytes32"
        },
        {
          "internalType": "uint256",
          "name": "vin",
          "type": "uint256"
        },
        {
          "internalType": "string",
          "name": "make",
          "type": "string"
        },
        {
          "internalType": "string",
          "name": "model",
          "type": "string"
        },
        {
          "internalType": "uint16",
          "name": "year",
          "type": "uint16"
        },
        {
          "internalType": "string",
          "name": "initialOwner",
          "type": "string"
        }
      ],
      "name": "registerCar",
      "outputs": [],
      "stateMutability": "nonpayable",
      "type": "function"
    },
    {
      "inputs": [
        {
          "internalType": "bytes32",
          "name": "carId",
          "type": "bytes32"
        },
        {
          "internalType": "string",
          "name": "description",
          "type": "string"
        },
        {
          "internalType": "string[]",
          "name": "partsChanged",
          "type": "string[]"
        }
      ],
      "name": "reportAccident",
      "outputs": [],
      "stateMutability": "nonpayable",
      "type": "function"
    },
    {
      "inputs": [
        {
          "internalType": "bytes32",
          "name": "carId",
          "type": "bytes32"
        },
        {
          "internalType": "string",
          "name": "newOwner",
          "type": "string"
        }
      ],
      "name": "transferOwnership",
      "outputs": [],
      "stateMutability": "nonpayable",
      "type": "function"
    },
    {
      "inputs": [
        {
          "internalType": "bytes32",
          "name": "carId",
          "type": "bytes32"
        },
        {
          "internalType": "uint256",
          "name": "mileage",
          "type": "uint256"
        },
        {
          "internalType": "string",
          "name": "serviceDescription",
          "type": "string"
        }
      ],
      "name": "updateMileage",
      "outputs": [],
      "stateMutability": "nonpayable",
      "type": "function"
    }
  ],
  "bytecode": "0x608060405234801561001057600080fd5b50336000806101000a81548173ffffffffffffffffffffffffffffffffffffffff021916908373ffffffffffffffffffffffffffffffffffffffff16021790555061260b806100606000396000f3fe608060405234801561001057600080fd5b50600436106100a95760003560e01c80639d865680116100715780639d86568014610165578063b302ef3714610199578063b3b5eaeb146101c9578063c78c0101146101e5578063ce606ee014610215578063ddb5789014610233576100a9565b80630d5f7702146100ae5780634e5451e4146100ca57806352adc21c146100e65780635caa0e241461011657806373f9bd0514610132575b600080fd5b6100c860048036038101906100c391906118e8565b610263565b005b6100e460048036038101906100df9190611815565b610387565b005b61010060048036038101906100fb91906117ec565b61049a565b60405161010d9190611ff2565b60405180910390f35b610130600480360381019061012b9190611869565b61060f565b005b61014c600480360381019061014791906117ec565b61074a565b60405161015c9493929190612180565b60405180910390f35b61017f600480360381019061017a91906117ec565b610898565b6040516101909594939291906120b1565b60405180910390f35b6101b360048036038101906101ae91906117ec565b610ee7565b6040516101c09190612014565b60405180910390f35b6101e360048036038101906101de919061194f565b610f0a565b005b6101ff60048036038101906101fa91906117ec565b611158565b60405161020c9190611fd0565b60405180910390f35b61021d6112c3565b60405161022a9190611f93565b60405180910390f35b61024d600480360381019061024891906117ec565b6112e7565b60405161025a9190611fae565b60405180910390f35b6000600160008581526020019081526020016000206000015414156102bd576040517f08c379a00000000000000000000000000000000000000000000000000000000081526004016102b490612051565b60405180910390fd5b6002600084815260200190815260200160002060000160405180606001604052808481526020014281526020018381525090806001815401808255809150506001900390600052602060002090600302016000909190919091506000820151816000015560208201518160010155604082015181600201908051906020019061034792919061152b565b505050827f11f6af111c6075b41f82bc26c6185f3546c767001801f27ce26d33d751f9814c8360405161037a9190612120565b60405180910390a2505050565b6000600160008481526020019081526020016000206000015414156103e1576040517f08c379a00000000000000000000000000000000000000000000000000000000081526004016103d890612051565b60405180910390fd5b600260008381526020019081526020016000206001016040518060400160405280838152602001428152509080600181540180825580915050600190039060005260206000209060020201600090919091909150600082015181600001908051906020019061045192919061152b565b50602082015181600101555050817f05bd9fe2ee66726463353de3d126251385f134096526cb94b375eed390b90eda8260405161048e919061202f565b60405180910390a25050565b60606000600160008481526020019081526020016000206000015414156104f6576040517f08c379a00000000000000000000000000000000000000000000000000000000081526004016104ed90612051565b60405180910390fd5b60026000838152602001908152602001600020600001805480602002602001604051908101604052809291908181526020016000905b8282101561060457838290600052602060002090600302016040518060600160405290816000820154815260200160018201548152602001600282018054610573906124c0565b80601f016020809104026020016040519081016040528092919081815260200182805461059f906124c0565b80156105ec5780601f106105c1576101008083540402835291602001916105ec565b820191906000526020600020905b8154815290600101906020018083116105cf57829003601f168201915b5050505050815250508152602001906001019061052c565b505050509050919050565b600060016000858152602001908152602001600020600001541415610669576040517f08c379a000000000000000000000000000000000000000000000000000000000815260040161066090612051565b60405180910390fd5b6002600084815260200190815260200160002060020160405180606001604052804281526020018481526020018381525090806001815401808255809150506001900390600052602060002090600302016000909190919091506000820151816000015560208201518160010190805190602001906106e992919061152b565b5060408201518160020190805190602001906107069291906115b1565b505050827f41a93dcf851d256ca09f9e66f1c09e8050fd0eb7a8431c11d9635335f8bb464842848460405161073d9392919061213b565b60405180910390a2505050565b6001602052806000526040600020600091509050806000015490806001018054610773906124c0565b80601f016020809104026020016040519081016040528092919081815260200182805461079f906124c0565b80156107ec5780601f106107c1576101008083540402835291602001916107ec565b820191906000526020600020905b8154815290600101906020018083116107cf57829003601f168201915b505050505090806002018054610801906124c0565b80601f016020809104026020016040519081016040528092919081815260200182805461082d906124c0565b801561087a5780601f1061084f5761010080835404028352916020019161087a565b820191906000526020600020905b81548152906001019060200180831161085d57829003601f168201915b5050505050908060030160009054906101000a900461ffff16905084565b6108a0611611565b60006060806060600060016000888152602001908152602001600020600001541415610901576040517f08c379a00000000000000000000000000000000000000000000000000000000081526004016108f890612051565b60405180910390fd5b6001600087815260200190815260200160002060405180608001604052908160008201548152602001600182018054610939906124c0565b80601f0160208091040260200160405190810160405280929190818152602001828054610965906124c0565b80156109b25780601f10610987576101008083540402835291602001916109b2565b820191906000526020600020905b81548152906001019060200180831161099557829003601f168201915b505050505081526020016002820180546109cb906124c0565b80601f01602080910402602001604051908101604052809291908181526020018280546109f7906124c0565b8015610a445780601f10610a1957610100808354040283529160200191610a44565b820191906000526020600020905b815481529060010190602001808311610a2757829003601f168201915b505050505081526020016003820160009054906101000a900461ffff1661ffff1661ffff168152505094506000600260008881526020019081526020016000209050600081600001805490501115610afe578060000160018260000180549050610aae91906123ea565b81548110610ae5577f4e487b7100000000000000000000000000000000000000000000000000000000600052603260045260246000fd5b9060005260206000209060030201600001549450610b03565b600094505b858582600001836001018460020182805480602002602001604051908101604052809291908181526020016000905b82821015610c0a57838290600052602060002090600302016040518060600160405290816000820154815260200160018201548152602001600282018054610b79906124c0565b80601f0160208091040260200160405190810160405280929190818152602001828054610ba5906124c0565b8015610bf25780601f10610bc757610100808354040283529160200191610bf2565b820191906000526020600020905b815481529060010190602001808311610bd557829003601f168201915b50505050508152505081526020019060010190610b32565b50505050925081805480602002602001604051908101604052809291908181526020016000905b82821015610cff5783829060005260206000209060020201604051806040016040529081600082018054610c64906124c0565b80601f0160208091040260200160405190810160405280929190818152602001828054610c90906124c0565b8015610cdd5780601f10610cb257610100808354040283529160200191610cdd565b820191906000526020600020905b815481529060010190602001808311610cc057829003601f168201915b5050505050815260200160018201548152505081526020019060010190610c31565b50505050915080805480602002602001604051908101604052809291908181526020016000905b82821015610ecd578382906000526020600020906003020160405180606001604052908160008201548152602001600182018054610d63906124c0565b80601f0160208091040260200160405190810160405280929190818152602001828054610d8f906124c0565b8015610ddc5780601f10610db157610100808354040283529160200191610ddc565b820191906000526020600020905b815481529060010190602001808311610dbf57829003601f168201915b5050505050815260200160028201805480602002602001604051908101604052809291908181526020016000905b82821015610eb6578382906000526020600020018054610e29906124c0565b80601f0160208091040260200160405190810160405280929190818152602001828054610e55906124c0565b8015610ea25780601f10610e7757610100808354040283529160200191610ea2565b820191906000526020600020905b815481529060010190602001808311610e8557829003601f168201915b505050505081526020019060010190610e0a565b505050508152505081526020019060010190610d26565b505050509050955095509550955095505091939590929450565b600080600160008481526020019081526020016000206000015414159050919050565b60008054906101000a900473ffffffffffffffffffffffffffffffffffffffff1673ffffffffffffffffffffffffffffffffffffffff163373ffffffffffffffffffffffffffffffffffffffff1614610f98576040517f08c379a0000000000000000000000000000000000000000000000000000000008152600401610f8f90612091565b60405180910390fd5b6000600160008881526020019081526020016000206000015414610ff1576040517f08c379a0000000000000000000000000000000000000000000000000000000008152600401610fe890612071565b60405180910390fd5b60405180608001604052808681526020018581526020018481526020018361ffff168152506001600088815260200190815260200160002060008201518160000155602082015181600101908051906020019061104f92919061152b565b50604082015181600201908051906020019061106c92919061152b565b5060608201518160030160006101000a81548161ffff021916908361ffff160217905550905050600260008781526020019081526020016000206001016040518060400160405280838152602001428152509080600181540180825580915050600190039060005260206000209060020201600090919091909150600082015181600001908051906020019061110392919061152b565b50602082015181600101555050857fc43268fb8b921f02550537154ba2579aa97b3a6e3eacebe0886e2a2cd9e105e486868686866040516111489594939291906121d3565b60405180910390a2505050505050565b60606000600160008481526020019081526020016000206000015414156111b4576040517f08c379a00000000000000000000000000000000000000000000000000000000081526004016111ab90612051565b60405180910390fd5b60026000838152602001908152602001600020600101805480602002602001604051908101604052809291908181526020016000905b828210156112b8578382906000526020600020906002020160405180604001604052908160008201805461121d906124c0565b80601f0160208091040260200160405190810160405280929190818152602001828054611249906124c0565b80156112965780601f1061126b57610100808354040283529160200191611296565b820191906000526020600020905b81548152906001019060200180831161127957829003601f168201915b50505050508152602001600182015481525050815260200190600101906111ea565b505050509050919050565b60008054906101000a900473ffffffffffffffffffffffffffffffffffffffff1681565b6060600060016000848152602001908152602001600020600001541415611343576040517f08c379a000000000000000000000000000000000000000000000000000000000815260040161133a90612051565b60405180910390fd5b60026000838152602001908152602001600020600201805480602002602001604051908101604052809291908181526020016000905b828210156115205783829060005260206000209060030201604051806060016040529081600082015481526020016001820180546113b6906124c0565b80601f01602080910402602001604051908101604052809291908181526020018280546113e2906124c0565b801561142f5780601f106114045761010080835404028352916020019161142f565b820191906000526020600020905b81548152906001019060200180831161141257829003601f168201915b5050505050815260200160028201805480602002602001604051908101604052809291908181526020016000905b8282101561150957838290600052602060002001805461147c906124c0565b80601f01602080910402602001604051908101604052809291908181526020018280546114a8906124c0565b80156114f55780601f106114ca576101008083540402835291602001916114f5565b820191906000526020600020905b8154815290600101906020018083116114d857829003601f168201915b50505050508152602001906001019061145d565b505050508152505081526020019060010190611379565b505050509050919050565b828054611537906124c0565b90600052602060002090601f01602090048101928261155957600085556115a0565b82601f1061157257805160ff19168380011785556115a0565b828001600101855582156115a0579182015b8281111561159f578251825591602001919060010190611584565b5b5090506115ad919061163d565b5090565b828054828255906000526020600020908101928215611600579160200282015b828111156115ff5782518290805190602001906115ef92919061152b565b50916020019190600101906115d1565b5b50905061160d919061165a565b5090565b6040518060800160405280600081526020016060815260200160608152602001600061ffff1681525090565b5b8082111561165657600081600090555060010161163e565b5090565b5b8082111561167a5760008181611671919061167e565b5060010161165b565b5090565b50805461168a906124c0565b6000825580601f1061169c57506116bb565b601f0160209004906000526020600020908101906116ba919061163d565b5b50565b60006116d16116cc8461226c565b61223b565b9050808382526020820190508260005b8581101561171157813585016116f78882611798565b8452602084019350602083019250506001810190506116e1565b5050509392505050565b600061172e61172984612298565b61223b565b90508281526020810184848401111561174657600080fd5b61175184828561247e565b509392505050565b600082601f83011261176a57600080fd5b813561177a8482602086016116be565b91505092915050565b60008135905061179281612590565b92915050565b600082601f8301126117a957600080fd5b81356117b984826020860161171b565b91505092915050565b6000813590506117d1816125a7565b92915050565b6000813590506117e6816125be565b92915050565b6000602082840312156117fe57600080fd5b600061180c84828501611783565b91505092915050565b6000806040838503121561182857600080fd5b600061183685828601611783565b925050602083013567ffffffffffffffff81111561185357600080fd5b61185f85828601611798565b9150509250929050565b60008060006060848603121561187e57600080fd5b600061188c86828701611783565b935050602084013567ffffffffffffffff8111156118a957600080fd5b6118b586828701611798565b925050604084013567ffffffffffffffff8111156118d257600080fd5b6118de86828701611759565b9150509250925092565b6000806000606084860312156118fd57600080fd5b600061190b86828701611783565b935050602061191c868287016117d7565b925050604084013567ffffffffffffffff81111561193957600080fd5b61194586828701611798565b9150509250925092565b60008060008060008060c0878903121561196857600080fd5b600061197689828a01611783565b965050602061198789828a016117d7565b955050604087013567ffffffffffffffff8111156119a457600080fd5b6119b089828a01611798565b945050606087013567ffffffffffffffff8111156119cd57600080fd5b6119d989828a01611798565b93505060806119ea89828a016117c2565b92505060a087013567ffffffffffffffff811115611a0757600080fd5b611a1389828a01611798565b9150509295509295509295565b6000611a2c8383611cd7565b905092915050565b6000611a408383611e09565b905092915050565b6000611a548383611eca565b905092915050565b6000611a688383611f07565b905092915050565b611a798161241e565b82525050565b6000611a8a82612308565b611a948185612373565b935083602082028501611aa6856122c8565b8060005b85811015611ae25784840389528151611ac38582611a20565b9450611ace8361233f565b925060208a01995050600181019050611aaa565b50829750879550505050505092915050565b6000611aff82612308565b611b098185612384565b935083602082028501611b1b856122c8565b8060005b85811015611b575784840389528151611b388582611a20565b9450611b438361233f565b925060208a01995050600181019050611b1f565b50829750879550505050505092915050565b6000611b7482612313565b611b7e8185612395565b935083602082028501611b90856122d8565b8060005b85811015611bcc5784840389528151611bad8582611a34565b9450611bb88361234c565b925060208a01995050600181019050611b94565b50829750879550505050505092915050565b6000611be98261231e565b611bf381856123a6565b935083602082028501611c05856122e8565b8060005b85811015611c415784840389528151611c228582611a48565b9450611c2d83612359565b925060208a01995050600181019050611c09565b50829750879550505050505092915050565b6000611c5e82612329565b611c6881856123b7565b935083602082028501611c7a856122f8565b8060005b85811015611cb65784840389528151611c978582611a5c565b9450611ca283612366565b925060208a01995050600181019050611c7e565b50829750879550505050505092915050565b611cd181612430565b82525050565b6000611ce282612334565b611cec81856123c8565b9350611cfc81856020860161248d565b611d058161257f565b840191505092915050565b6000611d1b82612334565b611d2581856123d9565b9350611d3581856020860161248d565b611d3e8161257f565b840191505092915050565b6000611d566012836123d9565b91507f436172206e6f74207265676973746572656400000000000000000000000000006000830152602082019050919050565b6000611d966016836123d9565b91507f43617220616c72656164792072656769737465726564000000000000000000006000830152602082019050919050565b6000611dd66016836123d9565b91507f4e6f742074686520636f6e7472616374206f776e6572000000000000000000006000830152602082019050919050565b6000606083016000830151611e216000860182611f75565b5060208301518482036020860152611e398282611cd7565b91505060408301518482036040860152611e538282611a7f565b9150508091505092915050565b6000608083016000830151611e786000860182611f75565b5060208301518482036020860152611e908282611cd7565b91505060408301518482036040860152611eaa8282611cd7565b9150506060830151611ebf6060860182611f57565b508091505092915050565b60006040830160008301518482036000860152611ee78282611cd7565b9150506020830151611efc6020860182611f75565b508091505092915050565b6000606083016000830151611f1f6000860182611f75565b506020830151611f326020860182611f75565b5060408301518482036040860152611f4a8282611cd7565b9150508091505092915050565b611f6081612446565b82525050565b611f6f81612446565b82525050565b611f7e81612474565b82525050565b611f8d81612474565b82525050565b6000602082019050611fa86000830184611a70565b92915050565b60006020820190508181036000830152611fc88184611b69565b905092915050565b60006020820190508181036000830152611fea8184611bde565b905092915050565b6000602082019050818103600083015261200c8184611c53565b905092915050565b60006020820190506120296000830184611cc8565b92915050565b600060208201905081810360008301526120498184611d10565b905092915050565b6000602082019050818103600083015261206a81611d49565b9050919050565b6000602082019050818103600083015261208a81611d89565b9050919050565b600060208201905081810360008301526120aa81611dc9565b9050919050565b600060a08201905081810360008301526120cb8188611e60565b90506120da6020830187611f84565b81810360408301526120ec8186611c53565b905081810360608301526121008185611bde565b905081810360808301526121148184611b69565b90509695505050505050565b60006020820190506121356000830184611f84565b92915050565b60006060820190506121506000830186611f84565b81810360208301526121628185611d10565b905081810360408301526121768184611af4565b9050949350505050565b60006080820190506121956000830187611f84565b81810360208301526121a78186611d10565b905081810360408301526121bb8185611d10565b90506121ca6060830184611f66565b95945050505050565b600060a0820190506121e86000830188611f84565b81810360208301526121fa8187611d10565b9050818103604083015261220e8186611d10565b905061221d6060830185611f66565b818103608083015261222f8184611d10565b90509695505050505050565b6000604051905081810181811067ffffffffffffffff8211171561226257612261612550565b5b8060405250919050565b600067ffffffffffffffff82111561228757612286612550565b5b602082029050602081019050919050565b600067ffffffffffffffff8211156122b3576122b2612550565b5b601f19601f8301169050602081019050919050565b6000819050602082019050919050565b6000819050602082019050919050565b6000819050602082019050919050565b6000819050602082019050919050565b600081519050919050565b600081519050919050565b600081519050919050565b600081519050919050565b600081519050919050565b6000602082019050919050565b6000602082019050919050565b6000602082019050919050565b6000602082019050919050565b600082825260208201905092915050565b600082825260208201905092915050565b600082825260208201905092915050565b600082825260208201905092915050565b600082825260208201905092915050565b600082825260208201905092915050565b600082825260208201905092915050565b60006123f582612474565b915061240083612474565b925082821015612413576124126124f2565b5b828203905092915050565b600061242982612454565b9050919050565b60008115159050919050565b6000819050919050565b600061ffff82169050919050565b600073ffffffffffffffffffffffffffffffffffffffff82169050919050565b6000819050919050565b82818337600083830152505050565b60005b838110156124ab578082015181840152602081019050612490565b838111156124ba576000848401525b50505050565b600060028204905060018216806124d857607f821691505b602082108114156124ec576124eb612521565b5b50919050565b7f4e487b7100000000000000000000000000000000000000000000000000000000600052601160045260246000fd5b7f4e487b7100000000000000000000000000000000000000000000000000000000600052602260045260246000fd5b7f4e487b7100000000000000000000000000000000000000000000000000000000600052604160045260246000fd5b6000601f19601f8301169050919050565b6125998161243c565b81146125a457600080fd5b50565b6125b081612446565b81146125bb57600080fd5b50565b6125c781612474565b81146125d257600080fd5b5056fea2646970667358221220ed4a9eb4868d5d45821b3ee9486c4cb73ab5dd6962190c6c9be7618a3c99810864736f6c63430008000033",
  "linkReferences": {},
  "deployedLinkReferences": {}
}