{
  "_format": "hh-sol-artifact-1",
  "contractName": "CarMileage",
  "sourceName": "contracts/CarMileage.sol",
  "abi": [
    {
      "inputs": [],
      "stateMutability": "nonpayable",
      "type": "constructor"
    },
    {
      "anonymous": false,
      "inputs": [
        {
          "indexed": true,
          "internalType": "bytes32",
          "name": "carId",
          "type": "bytes32"
        },
        {
          "indexed": false,
          "internalType": "uint256",
          "name": "vin",
          "type": "uint256"
        },
        {
          "indexed": false,
          "internalType": "string",
          "name": "make",
          "type": "string"
        },
        {
          "indexed": false,
          "internalType": "string",
          "name": "model",
          "type": "string"
        },
        {
          "indexed": false,
          "internalType": "uint16",
          "name": "year",
          "type": "uint16"
        },
        {
          "indexed": false,
          "internalType": "string",
          "name": "initialOwner",
          "type": "string"
        }
      ],
      "name": "CarRegistered",
      "type": "event"
    },
    {
      "anonymous": false,
      "inputs": [
        {
          "indexed": true,
          "internalType": "bytes32",
          "name": "carId",
          "type": "bytes32"
        },
        {
          "indexed": false,
          "internalType": "uint256",
          "name": "mileage",
          "type": "uint256"
        }
      ],
      "name": "MileageUpdated",
      "type": "event"
    },
    {
      "anonymous": false,
      "inputs": [
        {
          "indexed": true,
          "internalType": "bytes32",
          "name": "carId",
          "type": "bytes32"
        },
        {
          "indexed": false,
          "internalType": "string",
          "name": "newOwner",
          "type": "string"
        }
      ],
      "name": "OwnershipTransferred",
      "type": "event"
    },
    {
      "inputs": [
        {
          "internalType": "bytes32",
          "name": "",
          "type": "bytes32"
        }
      ],
      "name": "carConstantData",
      "outputs": [
        {
          "internalType": "uint256",
          "name": "vin",
          "type": "uint256"
        },
        {
          "internalType": "string",
          "name": "make",
          "type": "string"
        },
        {
          "internalType": "string",
          "name": "model",
          "type": "string"
        },
        {
          "internalType": "uint16",
          "name": "year",
          "type": "uint16"
        }
      ],
      "stateMutability": "view",
      "type": "function"
    },
    {
      "inputs": [
        {
          "internalType": "bytes32",
          "name": "carId",
          "type": "bytes32"
        }
      ],
      "name": "carExists",
      "outputs": [
        {
          "internalType": "bool",
          "name": "",
          "type": "bool"
        }
      ],
      "stateMutability": "view",
      "type": "function"
    },
    {
      "inputs": [
        {
          "internalType": "bytes32",
          "name": "",
          "type": "bytes32"
        }
      ],
      "name": "carMutableData",
      "outputs": [
        {
          "internalType": "uint256",
          "name": "mileage",
          "type": "uint256"
        }
      ],
      "stateMutability": "view",
      "type": "function"
    },
    {
      "inputs": [],
      "name": "contractOwner",
      "outputs": [
        {
          "internalType": "address",
          "name": "",
          "type": "address"
        }
      ],
      "stateMutability": "view",
      "type": "function"
    },
    {
      "inputs": [
        {
          "internalType": "bytes32",
          "name": "carId",
          "type": "bytes32"
        }
      ],
      "name": "getCarDetails",
      "outputs": [
        {
          "components": [
            {
              "internalType": "uint256",
              "name": "vin",
              "type": "uint256"
            },
            {
              "internalType": "string",
              "name": "make",
              "type": "string"
            },
            {
              "internalType": "string",
              "name": "model",
              "type": "string"
            },
            {
              "internalType": "uint16",
              "name": "year",
              "type": "uint16"
            }
          ],
          "internalType": "struct CarMileage.CarConstantData",
          "name": "constantData",
          "type": "tuple"
        },
        {
          "internalType": "uint256",
          "name": "mileage",
          "type": "uint256"
        },
        {
          "components": [
            {
              "internalType": "uint256",
              "name": "mileage",
              "type": "uint256"
            },
            {
              "internalType": "uint256",
              "name": "timestamp",
              "type": "uint256"
            },
            {
              "internalType": "string",
              "name": "description",
              "type": "string"
            }
          ],
          "internalType": "struct CarMileage.ServiceRecord[]",
          "name": "serviceHistory",
          "type": "tuple[]"
        },
        {
          "components": [
            {
              "internalType": "string",
              "name": "ownerName",
              "type": "string"
            },
            {
              "internalType": "uint256",
              "name": "timestamp",
              "type": "uint256"
            }
          ],
          "internalType": "struct CarMileage.OwnershipRecord[]",
          "name": "ownershipHistory",
          "type": "tuple[]"
        }
      ],
      "stateMutability": "view",
      "type": "function"
    },
    {
      "inputs": [
        {
          "internalType": "bytes32",
          "name": "carId",
          "type": "bytes32"
        },
        {
          "internalType": "uint256",
          "name": "vin",
          "type": "uint256"
        },
        {
          "internalType": "string",
          "name": "make",
          "type": "string"
        },
        {
          "internalType": "string",
          "name": "model",
          "type": "string"
        },
        {
          "internalType": "uint16",
          "name": "year",
          "type": "uint16"
        },
        {
          "internalType": "string",
          "name": "initialOwner",
          "type": "string"
        }
      ],
      "name": "registerCar",
      "outputs": [],
      "stateMutability": "nonpayable",
      "type": "function"
    },
    {
      "inputs": [
        {
          "internalType": "bytes32",
          "name": "carId",
          "type": "bytes32"
        },
        {
          "internalType": "string",
          "name": "newOwner",
          "type": "string"
        }
      ],
      "name": "transferOwnership",
      "outputs": [],
      "stateMutability": "nonpayable",
      "type": "function"
    },
    {
      "inputs": [
        {
          "internalType": "bytes32",
          "name": "carId",
          "type": "bytes32"
        },
        {
          "internalType": "uint256",
          "name": "mileage",
          "type": "uint256"
        },
        {
          "internalType": "string",
          "name": "serviceDescription",
          "type": "string"
        }
      ],
      "name": "updateMileage",
      "outputs": [],
      "stateMutability": "nonpayable",
      "type": "function"
    }
  ],
  "bytecode": "0x608060405234801561001057600080fd5b50336000806101000a81548173ffffffffffffffffffffffffffffffffffffffff021916908373ffffffffffffffffffffffffffffffffffffffff160217905550611798806100606000396000f3fe608060405234801561001057600080fd5b50600436106100885760003560e01c80639d8656801161005b5780639d86568014610128578063b302ef371461015b578063b3b5eaeb1461018b578063ce606ee0146101a757610088565b80630d5f77021461008d5780634e5451e4146100a95780636e661a1e146100c557806373f9bd05146100f5575b600080fd5b6100a760048036038101906100a29190610e25565b6101c5565b005b6100c360048036038101906100be9190610dd1565b610304565b005b6100df60048036038101906100da9190610da8565b610417565b6040516100ec9190611404565b60405180910390f35b61010f600480360381019061010a9190610da8565b610435565b60405161011f949392919061141f565b60405180910390f35b610142600480360381019061013d9190610da8565b610583565b60405161015294939291906113aa565b60405180910390f35b61017560048036038101906101709190610da8565b610981565b604051610182919061130d565b60405180910390f35b6101a560048036038101906101a09190610e8c565b6109a4565b005b6101af610c0e565b6040516101bc91906112f2565b60405180910390f35b60006001600085815260200190815260200160002060000154141561021f576040517f08c379a00000000000000000000000000000000000000000000000000000000081526004016102169061134a565b60405180910390fd5b816002600085815260200190815260200160002060000181905550600260008481526020019081526020016000206001016040518060600160405280848152602001428152602001838152509080600181540180825580915050600190039060005260206000209060030201600090919091909150600082015181600001556020820151816001015560408201518160020190805190602001906102c4929190610c32565b505050827f11f6af111c6075b41f82bc26c6185f3546c767001801f27ce26d33d751f9814c836040516102f79190611404565b60405180910390a2505050565b60006001600084815260200190815260200160002060000154141561035e576040517f08c379a00000000000000000000000000000000000000000000000000000000081526004016103559061134a565b60405180910390fd5b60026000838152602001908152602001600020600201604051806040016040528083815260200142815250908060018154018082558091505060019003906000526020600020906002020160009091909190915060008201518160000190805190602001906103ce929190610c32565b50602082015181600101555050817f05bd9fe2ee66726463353de3d126251385f134096526cb94b375eed390b90eda8260405161040b9190611328565b60405180910390a25050565b60026020528060005260406000206000915090508060000154905081565b600160205280600052604060002060009150905080600001549080600101805461045e9061167c565b80601f016020809104026020016040519081016040528092919081815260200182805461048a9061167c565b80156104d75780601f106104ac576101008083540402835291602001916104d7565b820191906000526020600020905b8154815290600101906020018083116104ba57829003601f168201915b5050505050908060020180546104ec9061167c565b80601f01602080910402602001604051908101604052809291908181526020018280546105189061167c565b80156105655780601f1061053a57610100808354040283529160200191610565565b820191906000526020600020905b81548152906001019060200180831161054857829003601f168201915b5050505050908060030160009054906101000a900461ffff16905084565b61058b610cb8565b60006060806000600160008781526020019081526020016000206000015414156105ea576040517f08c379a00000000000000000000000000000000000000000000000000000000081526004016105e19061134a565b60405180910390fd5b60016000868152602001908152602001600020604051806080016040529081600082015481526020016001820180546106229061167c565b80601f016020809104026020016040519081016040528092919081815260200182805461064e9061167c565b801561069b5780601f106106705761010080835404028352916020019161069b565b820191906000526020600020905b81548152906001019060200180831161067e57829003601f168201915b505050505081526020016002820180546106b49061167c565b80601f01602080910402602001604051908101604052809291908181526020018280546106e09061167c565b801561072d5780601f106107025761010080835404028352916020019161072d565b820191906000526020600020905b81548152906001019060200180831161071057829003601f168201915b505050505081526020016003820160009054906101000a900461ffff1661ffff1661ffff168152505093506000600260008781526020019081526020016000209050848160000154826001018360020181805480602002602001604051908101604052809291908181526020016000905b82821015610876578382906000526020600020906003020160405180606001604052908160008201548152602001600182015481526020016002820180546107e59061167c565b80601f01602080910402602001604051908101604052809291908181526020018280546108119061167c565b801561085e5780601f106108335761010080835404028352916020019161085e565b820191906000526020600020905b81548152906001019060200180831161084157829003601f168201915b5050505050815250508152602001906001019061079e565b50505050915080805480602002602001604051908101604052809291908181526020016000905b8282101561096b57838290600052602060002090600202016040518060400160405290816000820180546108d09061167c565b80601f01602080910402602001604051908101604052809291908181526020018280546108fc9061167c565b80156109495780601f1061091e57610100808354040283529160200191610949565b820191906000526020600020905b81548152906001019060200180831161092c57829003601f168201915b505050505081526020016001820154815250508152602001906001019061089d565b5050505090509450945094509450509193509193565b600080600160008481526020019081526020016000206000015414159050919050565b60008054906101000a900473ffffffffffffffffffffffffffffffffffffffff1673ffffffffffffffffffffffffffffffffffffffff163373ffffffffffffffffffffffffffffffffffffffff1614610a32576040517f08c379a0000000000000000000000000000000000000000000000000000000008152600401610a299061138a565b60405180910390fd5b6000600160008881526020019081526020016000206000015414610a8b576040517f08c379a0000000000000000000000000000000000000000000000000000000008152600401610a829061136a565b60405180910390fd5b60405180608001604052808681526020018581526020018481526020018361ffff1681525060016000888152602001908152602001600020600082015181600001556020820151816001019080519060200190610ae9929190610c32565b506040820151816002019080519060200190610b06929190610c32565b5060608201518160030160006101000a81548161ffff021916908361ffff160217905550905050600060026000888152602001908152602001600020600001819055506002600087815260200190815260200160002060020160405180604001604052808381526020014281525090806001815401808255809150506001900390600052602060002090600202016000909190919091506000820151816000019080519060200190610bb9929190610c32565b50602082015181600101555050857fc43268fb8b921f02550537154ba2579aa97b3a6e3eacebe0886e2a2cd9e105e48686868686604051610bfe959493929190611472565b60405180910390a2505050505050565b60008054906101000a900473ffffffffffffffffffffffffffffffffffffffff1681565b828054610c3e9061167c565b90600052602060002090601f016020900481019282610c605760008555610ca7565b82601f10610c7957805160ff1916838001178555610ca7565b82800160010185558215610ca7579182015b82811115610ca6578251825591602001919060010190610c8b565b5b509050610cb49190610ce4565b5090565b6040518060800160405280600081526020016060815260200160608152602001600061ffff1681525090565b5b80821115610cfd576000816000905550600101610ce5565b5090565b6000610d14610d0f8461150b565b6114da565b905082815260208101848484011115610d2c57600080fd5b610d3784828561163a565b509392505050565b600081359050610d4e8161171d565b92915050565b600082601f830112610d6557600080fd5b8135610d75848260208601610d01565b91505092915050565b600081359050610d8d81611734565b92915050565b600081359050610da28161174b565b92915050565b600060208284031215610dba57600080fd5b6000610dc884828501610d3f565b91505092915050565b60008060408385031215610de457600080fd5b6000610df285828601610d3f565b925050602083013567ffffffffffffffff811115610e0f57600080fd5b610e1b85828601610d54565b9150509250929050565b600080600060608486031215610e3a57600080fd5b6000610e4886828701610d3f565b9350506020610e5986828701610d93565b925050604084013567ffffffffffffffff811115610e7657600080fd5b610e8286828701610d54565b9150509250925092565b60008060008060008060c08789031215610ea557600080fd5b6000610eb389828a01610d3f565b9650506020610ec489828a01610d93565b955050604087013567ffffffffffffffff811115610ee157600080fd5b610eed89828a01610d54565b945050606087013567ffffffffffffffff811115610f0a57600080fd5b610f1689828a01610d54565b9350506080610f2789828a01610d7e565b92505060a087013567ffffffffffffffff811115610f4457600080fd5b610f5089828a01610d54565b9150509295509295509295565b6000610f698383611229565b905092915050565b6000610f7d8383611266565b905092915050565b610f8e816115da565b82525050565b6000610f9f8261155b565b610fa98185611596565b935083602082028501610fbb8561153b565b8060005b85811015610ff75784840389528151610fd88582610f5d565b9450610fe38361157c565b925060208a01995050600181019050610fbf565b50829750879550505050505092915050565b600061101482611566565b61101e81856115a7565b9350836020820285016110308561154b565b8060005b8581101561106c578484038952815161104d8582610f71565b945061105883611589565b925060208a01995050600181019050611034565b50829750879550505050505092915050565b611087816115ec565b82525050565b600061109882611571565b6110a281856115b8565b93506110b2818560208601611649565b6110bb8161170c565b840191505092915050565b60006110d182611571565b6110db81856115c9565b93506110eb818560208601611649565b6110f48161170c565b840191505092915050565b600061110c6012836115c9565b91507f436172206e6f74207265676973746572656400000000000000000000000000006000830152602082019050919050565b600061114c6016836115c9565b91507f43617220616c72656164792072656769737465726564000000000000000000006000830152602082019050919050565b600061118c6016836115c9565b91507f4e6f742074686520636f6e7472616374206f776e6572000000000000000000006000830152602082019050919050565b60006080830160008301516111d760008601826112d4565b50602083015184820360208601526111ef828261108d565b91505060408301518482036040860152611209828261108d565b915050606083015161121e60608601826112b6565b508091505092915050565b60006040830160008301518482036000860152611246828261108d565b915050602083015161125b60208601826112d4565b508091505092915050565b600060608301600083015161127e60008601826112d4565b50602083015161129160208601826112d4565b50604083015184820360408601526112a9828261108d565b9150508091505092915050565b6112bf81611602565b82525050565b6112ce81611602565b82525050565b6112dd81611630565b82525050565b6112ec81611630565b82525050565b60006020820190506113076000830184610f85565b92915050565b6000602082019050611322600083018461107e565b92915050565b6000602082019050818103600083015261134281846110c6565b905092915050565b60006020820190508181036000830152611363816110ff565b9050919050565b600060208201905081810360008301526113838161113f565b9050919050565b600060208201905081810360008301526113a38161117f565b9050919050565b600060808201905081810360008301526113c481876111bf565b90506113d360208301866112e3565b81810360408301526113e58185611009565b905081810360608301526113f98184610f94565b905095945050505050565b600060208201905061141960008301846112e3565b92915050565b600060808201905061143460008301876112e3565b818103602083015261144681866110c6565b9050818103604083015261145a81856110c6565b905061146960608301846112c5565b95945050505050565b600060a08201905061148760008301886112e3565b818103602083015261149981876110c6565b905081810360408301526114ad81866110c6565b90506114bc60608301856112c5565b81810360808301526114ce81846110c6565b90509695505050505050565b6000604051905081810181811067ffffffffffffffff82111715611501576115006116dd565b5b8060405250919050565b600067ffffffffffffffff821115611526576115256116dd565b5b601f19601f8301169050602081019050919050565b6000819050602082019050919050565b6000819050602082019050919050565b600081519050919050565b600081519050919050565b600081519050919050565b6000602082019050919050565b6000602082019050919050565b600082825260208201905092915050565b600082825260208201905092915050565b600082825260208201905092915050565b600082825260208201905092915050565b60006115e582611610565b9050919050565b60008115159050919050565b6000819050919050565b600061ffff82169050919050565b600073ffffffffffffffffffffffffffffffffffffffff82169050919050565b6000819050919050565b82818337600083830152505050565b60005b8381101561166757808201518184015260208101905061164c565b83811115611676576000848401525b50505050565b6000600282049050600182168061169457607f821691505b602082108114156116a8576116a76116ae565b5b50919050565b7f4e487b7100000000000000000000000000000000000000000000000000000000600052602260045260246000fd5b7f4e487b7100000000000000000000000000000000000000000000000000000000600052604160045260246000fd5b6000601f19601f8301169050919050565b611726816115f8565b811461173157600080fd5b50565b61173d81611602565b811461174857600080fd5b50565b61175481611630565b811461175f57600080fd5b5056fea2646970667358221220dffb3cd51221397b4945832938e3c2c14545c9c18d223dda3564d17b404424dd64736f6c63430008000033",
  "linkReferences": {},
  "deployedLinkReferences": {}
}