{
  "contractName": "CarMileage",
  "abi": [
    {
      "inputs": [],
      "stateMutability": "nonpayable",
      "type": "constructor"
    },
    {
      "anonymous": false,
      "inputs": [
        {
          "indexed": false,
          "internalType": "bytes32",
          "name": "carId",
          "type": "bytes32"
        },
        {
          "indexed": false,
          "internalType": "address",
          "name": "owner",
          "type": "address"
        }
      ],
      "name": "CarRegistered",
      "type": "event"
    },
    {
      "anonymous": false,
      "inputs": [
        {
          "indexed": false,
          "internalType": "bytes32",
          "name": "carId",
          "type": "bytes32"
        },
        {
          "indexed": false,
          "internalType": "uint256",
          "name": "newMileage",
          "type": "uint256"
        },
        {
          "indexed": false,
          "internalType": "string",
          "name": "serviceDetails",
          "type": "string"
        }
      ],
      "name": "MileageUpdated",
      "type": "event"
    },
    {
      "anonymous": false,
      "inputs": [
        {
          "indexed": false,
          "internalType": "bytes32",
          "name": "carId",
          "type": "bytes32"
        },
        {
          "indexed": false,
          "internalType": "address",
          "name": "newOwner",
          "type": "address"
        }
      ],
      "name": "OwnershipTransferred",
      "type": "event"
    },
    {
      "anonymous": false,
      "inputs": [
        {
          "indexed": false,
          "internalType": "address",
          "name": "serviceCenter",
          "type": "address"
        }
      ],
      "name": "ServiceCenterAdded",
      "type": "event"
    },
    {
      "inputs": [
        {
          "internalType": "bytes32",
          "name": "carId",
          "type": "bytes32"
        }
      ],
      "name": "registerCar",
      "outputs": [],
      "stateMutability": "nonpayable",
      "type": "function"
    }
  ],
  "bytecode": "0x608060405234801561001057600080fd5b50600280546001600160a01b0319163317905561019b806100326000396000f3fe608060405234801561001057600080fd5b506004361061002b5760003560e01c8063038c484714610030575b600080fd5b61004361003e366004610106565b610045565b005b6000818152602081905260409020546001600160a01b0316156100835760405162461bcd60e51b815260040161007a90610135565b60405180910390fd5b60408051808201825233808252600060208084018281528683529082905290849020925183546001600160a01b0319166001600160a01b039091161783555160019092019190915590517f55d62dac41d1ec67d1fa8386d5953c6266f5959843f9a173fefed8d06c3154b8916100fb9184919061011e565b60405180910390a150565b600060208284031215610117578081fd5b5035919050565b9182526001600160a01b0316602082015260400190565b60208082526016908201527510d85c88185b1c9958591e481c9959da5cdd195c995960521b60408201526060019056fea264697066735822122094d412702224b6caa539a257443ae9b0dab4d1275c9e15f6c7fa5d86d99e7df164736f6c63430008000033",
  "immutableReferences": {},
  "source": "// SPDX-License-Identifier: MIT\npragma solidity ^0.8.0;\n\ncontract CarMileage {\n\n    struct Car {\n        address owner;\n        uint256 mileage;\n    }\n\n    mapping(bytes32 => Car) private cars;\n    mapping(address => bool) private serviceCenters;\n    address private admin;\n\n    modifier onlyAdmin() {\n        require(msg.sender == admin, \"Only admin can perform this action\");\n        _;\n    }\n\n    modifier onlyServiceCenter() {\n        require(serviceCenters[msg.sender], \"Only service centers can perform this action\");\n        _;\n    }\n\n    event CarRegistered(bytes32 carId, address owner);\n    event OwnershipTransferred(bytes32 carId, address newOwner);\n    event MileageUpdated(bytes32 carId, uint256 newMileage, string serviceDetails);\n    event ServiceCenterAdded(address serviceCenter);\n\n    constructor() {\n        admin = msg.sender;\n    }\n\n    function registerCar(bytes32 carId) public {\n        require(cars[carId].owner == address(0), \"Car already registered\");\n\n        cars[carId] = Car({\n            owner: msg.sender,\n            mileage: 0\n        });\n\n        emit CarRegistered(carId, msg.sender);\n    }\n\n}\n",
  "sourcePath": "/Users/prathameshmestry/Developer/hackathon/contracts/CarMileage.sol",
  "compiler": {
    "name": "solc",
    "version": "0.8.0+commit.c7dfd78e.Emscripten.clang"
  },
  "schemaVersion": "3.4.16",
  "updatedAt": "2024-07-20T13:34:41.549Z",
  "devdoc": {
    "kind": "dev",
    "methods": {},
    "version": 1
  },
  "userdoc": {
    "kind": "user",
    "methods": {},
    "version": 1
  }
}